:400000000040002011000000510A0000510A000080B500AF00F026FD80B500AF254B12221A6001F04FF8012001F05CF8182000F04DFF214B214A1A60214B214A12680221C9
:400040000A431A601F4B204A1A60204B00221A601F4B1F4A126808218A431A60FA23DB00181C00F07FFF1B4B181C00F0CFFF1A4BEF2212021A60194B194A1A60194BF022FA
:4000800012011A60154B184A1A60184B802212061A60174B00221A60164B80221A60164B40221A60154B00221A60024B11221A60BD4680BD3000104004010B40060000809C
:4000C00078002E407C002E402D3E000064F02E406CF02E40DC050000000401400000014080FF00800003014040FF008008010B4000010B401C010140040101400C020B4033
:4001000080B582B000AF72B6454B00221A60FB1D00221A7023E0FB1D1A78131C5B009B185B00404A9B183B603B681A78597809020A43997809040A43DB781B061343191CAC
:400140003B681A795B791B0213439BB2081C191C00F00CFDFB1D1A78FB1D01321A70FB1D1B78012BD7D9304A304B101C191C00F00DFD2F4B2F4A1A602F4B902212041A60E4
:400180002E4B992212041A602D4B992212041A602C4B802292041A602B4B992212041A602A4B992212041A60294A294B1B78DBB202210B43DBB21370264A264B1B78DBB285
:4001C0003C218B43DBB214210B43DBB21370204A1F4B1B78DBB216210B43DBB213701E4B1E4A1A601E4B20221A601E4B1E4A1A601E4B20221A601E4B40221A601D4BC022BC
:4002000052031A601C4BC0221A601C4BD82212041A60FFF701FF00F0F9FCBD4602B080BD6CF02E4094160000A0160000A416000000000240000009EE0001024000500F406F
:4002400010500F4014500F4020500F4030500F4000700F4001700F40080004400010D800000104400801044049620300180104400002044008020440000304400803044014
:4002800010B5064C2378002B07D1054B002B02D0044800E000BF0123237010BD48010020000000002416000008B5084B002B03D00748084900E000BF07480368002B00D127
:4002C00008BD064B002BFBD09847F9E700000000241600004C010020C80000200000000080B500AF00F0B8FD031E012B05D1012000F0BCFD024B01221A70BD4680BDC046EE
:400300006B01002080B598B000AF62B6DC4B181C00F090FC00F04AFD5F23FB1800221A7000F042FFD74B181C00F0EAFF7B2000F0E7FAD54B181C00F0E3FF0C2000F0E0FAB6
:40034000D14B181C00F0DCFF642000F0D9FACE4B181C00F0D5FFCD4B181C00F0D1FACA4B181C00F0CDFF002000F0CAFAC64B181C00F0C6FF00237B643423FB18181C00F0A0
:4003800097FA2823FB18181C00F092FA1C23FB18181C00F08DFA1023FB18181C00F088FA3B1D181C00F084FAB94B1B78002B00D13AE2B74B00221A705F23FB181B78062B05
:4003C00000D92EE29A00B34BD3181B689F460023BB6500237B6500233B650023FB64012000F084FC012000F04DFD012000F0A2FF5F23FB1801221A7016E2BB6D3B6400F00F
:4004000091FE031CDBB259B23423FA18BB6D081C111C1A1C00F0F8FA031CBB6500F090FE031CDBB259B22823FA187B6D081C111C1A1C00F0E9FA031C7B6500F08FFE031CCE
:40044000DBB259B21C23FA183B6D081C111C1A1C00F0DAFA031C3B6500F0A0FF031CDBB259B21023FA18FB6C081C111C1A1C00F0CBFA031CFB64BB6DDAB23B6CDBB2D31A60
:40048000DBB2DBB23A1D5BB2101C191C00F0F4F93B1D181C00F0D4F9031E0DD13B1D181C00F020FA031E07D00023BB6500237B6500233B6500233B64774B181C00F020FFDA
:4004C000764B181C00F01CFFBB6D181C00F018FA724B181C00F014FF7B6D181C00F010FA6E4B181C00F00CFF3B6D181C00F008FA6A4B181C00F004FFFB6C181C00F000FA7D
:40050000614B181C00F0FCFEFB6C642B0DDD5F23FB1805221A700023BB643B1D181C00F0C7F9002000F006FF1EE0BB6D322B1BDD7B6D052B18DD3B6D042B15DC5F23FB1853
:4005400002221A700023BB6500237B6500233B650023FB640023BB643B1D181C00F0A8F9002000F08FFC5FE15EE1BB6C0133BB6400F0D8FD031CDBB259B23423FA18BB6D42
:40058000081C111C1A1C00F03FFA031CBB6500F0D7FD031CDBB259B22823FA187B6D081C111C1A1C00F030FA031C7B6500F0D6FD031CDBB259B21C23FA183B6D081C111C28
:4005C0001A1C00F021FA031C3B65354B181C00F097FEBB6D181C00F093F9304B181C00F08FFE7B6D181C00F08BF92C4B181C00F087FE3B6D181C00F083F9284B181C00F02F
:400600007FFEFB6C181C00F07BF9244B181C00F077FEBB6C181C00F073F91B4B181C00F06FFEBB6C782B11DD5F23FB1800221A700023BB6500237B6500233B650023FB6404
:400640000023BB64012000F01DFC17E0BB6D312B14DC7B6D322B11DD3B6D052B0EDD5F23FB1803221A700023BB6500237B6500233B650023FB640023BB64D5E0D4E0C0462D
:40068000E102000028160000381600006D0700006B010020781600003C1600004016000044160000BB6C0133BB6400F03BFD031CDBB259B23423FA18BB6D081C111C1A1CCA
:4006C00000F0A2F9031CBB6500F03AFD031CDBB259B22823FA187B6D081C111C1A1C00F093F9031C7B6500F039FD031CDBB259B21C23FA183B6D081C111C1A1C00F084F941
:40070000031C3B65494B181C00F0FAFDBB6D181C00F0F6F8464B181C00F0F2FD7B6D181C00F0EEF8424B181C00F0EAFD3B6D181C00F0E6F83E4B181C00F0E2FDFB6C181C12
:4007400000F0DEF83A4B181C00F0DAFDBB6C181C00F0D6F8374B181C00F0D2FDBB6C8C2B11DD5F23FB1800221A700023BB6500237B6500233B650023FB640023BB640120AA
:4007800000F080FB21E0BB6D092B1EDC7B6D1D2B1BDC3B6D322B18DD5F23FB1804221A700023BB6500237B6500233B650023FB640023BB64012000F065FB002000F096FA33
:4007C0001D4B181C00F09CFD2EE02DE0C04600F0D7FD031EFBD1C04600F0D2FD031EFBD05F23FB1800221A70012000F07FFA1BE0124B181C00F084FD002000F09BFDC046DB
:4008000000F0BEFD031EFBD1C04600F0B9FD031EFBD0012000F08EFD5F23FB1800221A7002E0C046C0E5C046BEE5C0464816000040160000381600004C1600006016000095
:4008400080B584B000AF78600023FB600023BB600AE07A68BB68D3181B795BB2FA68D318FB60BB680133BB60BB68052BF1DDFB68181CBD4604B080BD80B582B000AF78609D
:400880000A1CFB1C1A707B681B680133181C062100F088FE0B1C1A1C7B681A607B681B687968FA1CCB1812781A71BD4602B080BD80B584B000AF78607B68012252421A6001
:4008C0000023FB6007E07A68FB68D31800221A71FB680133FB60FB68052BF4DDBD4604B080BDC04680B582B000AF78607B681B687A68D3181B795BB2181CBD4602B080BD7E
:4009000080B588B000AF78607B68002B05DA2D2000F066FC7B685B427B607B68FB610023BB610123FB6044E0BB69012B1BD101233B61FB687B6108E03A69131C9B009B1878
:400940005B003B617B69013B7B617B69002BF3DC7B68181C396900F025FE0B1CFB61FB68013BFB6001E00023FB600023BB600FE0FB69181C0A2100F02FFD031CFB61BB6854
:400980000133BB60BB69002B02D1FB680133FB60FB690933122BEBD8BA68FB689A4201DA0023FB61FB693033181C00F019FC0123BB61FB68002BB7D1BD4608B080BDC04625
:4009C00080B584B000AF021C3960FB1D1A70FB1D1B785BB2FB603B68181CFFF731FF021CFB689B18FB603A68FB1D1B785BB2101C191CFFF741FFFB689B10DBB25BB2181C1A
:400A0000BD4604B080BDC04680B584B000AFB9607A600F23FB18021C1A700F23FB1800229A56BB68101C191CFFF7CAFF031E03D07B6801337B6005E07B68002B02DD7B688F
:400A4000013B7B607B68181CBD4604B080BDC04680B500AF00F0B2FD031C1B680C2B00D1FEE7FEE780B586B000AF224B7B61224B3B61204B7B6135E03B691B68FB603B6969
:400A80005B68BB603B699B683B6000237B600CE0FB681A68BB681A60BB680433BB60FB680433FB607B6804337B607A683B689A42EED13B69DB683B6000237B6008E0BB68A0
:400AC00000221A60BB680433BB607B6804337B607A683B689A42F2D13B6910333B617B69013B7B617B69002BC6D100F06DFDFFF709FCFEE7010000000017000080B582B0EE
:400B000000AF154B144A126801218A431A6000237B600FE07B68032B04D8104B7A689200D35800E00E4B0F4A796889008B507B6801337B607B682F2BECD9FFF7E1FA0A4BA0
:400B400000221A60044B044A126801210A431A60BD4602B080BDC0460000104000000000510A000000000020C000002080B582B000AF786039607A683B68101C00211A1CA7
:400B800000F048FDBD4602B080BDC04680B586B000AF7860396000233B6100237B612FE07B699B007A68D3181B68BB600F23FB18BA681A70BB68FF229343BB6018E03B6904
:400BC0005B003A68D3181B781A1CBB68D318191C3B695B003A68D3185B780B703B6901333B610F23FB181A780F23FB18013A1A700F23FB181B78002BE1D17B6901337B6129
:400C00007B69002BCCD0BD4606B080BD80B500AF054B03221A60054B03221A60044B00221A60BD4680BDC0463000304030003140000E3F4080B582B000AF786000F04CF830
:400C40007B68181C00F008F8032000F013F800F039F8BD4602B080BD80B582B000AF7860034B84217A685A50BD4602B080BDC0460000002090B585B000AF021CFB1D1A70CE
:400C80000E23FB600B23FC1800F09FFB031C23700A4B0A4A12680A491140FA1D1078FA689040021C0A431A600B23FB181B78181C00F08FFBBD4605B090BDC04610E400E04C
:400CC000FF3FFFFF80B500AF024B802292021A60BD4680BD00E100E080B500AF024B802292021A60BD4680BD80E100E080B584B000AF021CFB1D1A700E4B1B68DAB20F2302
:400D0000FB1840218A431A70FB1D1B789B01DBB240221340D9B20F23FB180F22BA1812780A431A70034B0F22BA1812781A60BD4604B080BD0003044080B500AF0A4B0B4A0D
:400D40001A600B4B0C221A60032000F079F8FA239B00181C00F04AF8FA239B00181C00F037F8BD4680BDC04600012040000001022401204090B583B000AFFC1D00F025FBCF
:400D8000031C2370084B084A126801210A431A60FB1D1B78181C00F01CFB0120182100F033F8BD4603B090BD0000204080B500AF064B1B78002B04D1FFF7BEFF034B0122CF
:400DC0001A70FFF7D7FFBD4680BDC0466401002080B582B000AF7860034B7A681204120C1A60BD4602B080BD0801204080B582B000AF7860034B7A681204120C1A60BD46DC
:400E000002B080BD1401204090B585B000AF786039600F23FC1800F0D8FA031C2370074B3A68796891400A1C1A600F23FB181B78181C00F0CEFABD4605B090BD0800204083
:400E400080B582B000AF7860024B7A681A60BD4602B080BD3801204080B500AF024B1B68181CBD4680BDC0463001204080B582B000AF7860024B7A681A60BD4602B080BD08
:400E80003001204080B584B000AF021CFB1D1A700D4B1B68DAB20F23FB187F210A401A70FB1D1B78DB01D9B20F23FB180F22BA1812780A431A70044B0F22BA1812781A6098
:400EC000BD4604B080BDC0460003044090B58BB000AF78602723FC1800F077FA031C2370184B1A680C23FB181A60174B1A680C23FB185A607B68033B144AD35C1A1C0C23A5
:400F0000FB189A60124B1A680C23FB18DA601C23FB18104A1A600C23FA181C23FB185A600D4B1C22BA181A600C4B0D4A1A600A4B1B682723FB181B78181C00F04AFABD4699
:400F40000BB090BD08010B4000010B40A816000030001040B6EA000008001040040010401700008080B584B000AF78600023FB60154B154A126801210A431A60134B144A5C
:400F80001A60144B134A1268802109020A431A607B68002B12D01023FB600CE0012000F035F800F019F8031E02D00023FB6005E07B68013B7B607B68002BEFD1FB68181CB0
:400FC000BD4604B080BDC04660F02E4078002E400220000010002E4080B582B000AF054B1B68012213407B607B68181CBD4602B080BDC0460C002E4080B582B000AF021CBC
:40100000FB1D1A7001BEBD4602B080BD80B582B000AF021CBB1D1A80BB1D1B88044A12785343181C00F0C8F9BD4602B080BDC046D400002080B500AF0E4B0E4A12680121CC
:401040008A431A600B4B0B4A126802218A431A60094B094A126830218A4310210A431A60054B054A126807218A4301210A431A60BD4680BD00F02E4000FF2E4080B500AF7D
:401080000E4B0E4A126802218A431A600C4B0C4A126807218A4302210A431A60084B084A126830218A4320210A431A60034B034A126801210A431A60BD4680BD00F02E40B4
:4010C00000FF2E4080B500AFFFF7B4FF044B044A1268802109060A431A60BD4680BDC04600F02E4080B584B000AF78600C4B1B6801221340FB607B68002B02D0012B03D04A
:4011000005E0FFF797FF06E0FFF7B8FF03E00020FFF772FFC046FB68181CBD4604B080BD00F02E4080B500AF044B1B68DBB201221340DBB2181CBD4680BDC0460401044049
:4011400080B500AF044B1B68022213405B08DBB2181CBD4680BDC0460401044080B500AF044B1B68042213409B08DBB2181CBD4680BDC0460401044080B500AF00F046F85B
:40118000BD4680BD80B500AF064B064A1268802109060A431A6000F019F800F01BF8BD4680BDC0460000244080B500AF064B1B78002B04D1FFF7E0FF034B01221A70FFF73D
:4011C000E1FFBD4680BDC0466601002080B500AFBD4680BD80B500AF00F078F8BD4680BD80B582B000AF7860C046064B1B681F221340082BF9D0044B7A681A60BD4602B0E2
:4012000080BDC046080224404002244080B500AF1B4B1C4A1A601C4B00221A601B4B01221A601B4B1B4A1A601B4B07221A601B4B00221A601A4B01221A601A4B154A1A6097
:40124000194B00221A60194B04221A60184B00221A60184B00221A60174B00221A60174B00221A60164B00221A60164B00221A60144B1B689AB2144B1A80BD4680BDC04609
:40128000000024400C00000240002440480024400003244007000080040324401003244044002440000224400402244050002440880E2440C80E2440480F2440080F244006
:4012C000C80F2440880F24406801002080B500AF074B074A126807490A40902109040A431A60054B054A12881A60BD4680BDC04600010240FFFF0FFF880F24406801002043
:4013000080B584B000AF78600023FB6009E07A68FB68D3181B78181CFFF762FFFB680133FB607A68FB68D3181B78002BEFD1BD4604B080BD80B584B000AF021CFB1D1A709C
:401340000E4B1B68DAB20F23FB1840218A431A70FB1D1B789B01DBB240221340D9B20F23FB180F22BA1812780A431A70034B0F22BA1812781A60BD4604B080BD00020440BC
:4013800080B500AF044B1B68102213401B09DBB2181CBD4680BDC0460401044080B500AF044B1B6808221340DB08DBB2181CBD4680BDC046040104400230800803D0013852
:4013C000FDD1C046C046C0467047EFF3108072B6704780F31088704703460B437FD4002243088B4274D303098B425FD3030A8B4244D3030B8B4228D3030C8B420DD3FF2229
:40140000090212BA030C8B4202D31212090265D0030B8B4219D300E0090AC30B8B4201D3CB03C01A5241830B8B4201D38B03C01A5241430B8B4201D34B03C01A5241030B7A
:401440008B4201D30B03C01A5241C30A8B4201D3CB02C01A5241830A8B4201D38B02C01A5241430A8B4201D34B02C01A5241030A8B4201D30B02C01A5241CDD2C3098B4278
:4014800001D3CB01C01A524183098B4201D38B01C01A524143098B4201D34B01C01A524103098B4201D30B01C01A5241C3088B4201D3CB00C01A524183088B4201D38B00D2
:4014C000C01A524143088B4201D34B00C01A5241411A00D201465241104670475DE0CA0F00D04942031000D34042534000229C4603098B422DD3030A8B4212D3FC22890117
:4015000012BA030A8B420CD3890192118B4208D3890192118B4204D389013AD0921100E08909C3098B4201D3CB01C01A524183098B4201D38B01C01A524143098B4201D31E
:401540004B01C01A524103098B4201D30B01C01A5241C3088B4201D3CB00C01A524183088B4201D38B00C01A5241D9D243088B4201D34B00C01A5241411A00D20146634658
:4015800052415B10104601D34042002B00D54942704763465B1000D3404201B5002000F00BF802BD0029F8D003B5FFF715FF0EBC4243891A1847C0467047C046014B1868BB
:4015C0007047C046400100200E4B70B500251E1C0D4CE41AA410A54204D0AB00F35898470135F8E700F07AF8084B00251E1C084CE41AA410A54204D0AB00F3589847013560
:40160000F8E770BDE8160000E8160000E8160000F0160000031C8218934202D019700133FAE77047000000000D0A54657374204C696E650D0A0000000D0A000053312000B8
:40164000200000005332200053332000536972656E2044657465637465640D0A000000004669726520416C61726D2044657465637465640D0A000000CE030000FA030000EB
:401680006A050000A4060000CC070000F00700002608000000300F40000400400F40000402600F4002011101030405060708090A0B0C0E0F101112131415161718191B1CD1
:4016C0001D1E1F2021222325262728292A2B2E2F303132333435000043000000F8B5C046F8BC08BC9E467047A9020000FD0A0000F8B5C046F8BC08BC9E4670478102000062
:4017000010170000C800002080000000280000000000000000366E01C05D0000180000000000E02E0100000000000000000000000000000000000000000000000000000009
:401740000000000000000000D8160000000000000000000000000000000000000000000000000000000000000000000000000000000000000000000000000000000000007B
:401780000000000000000000E00000200000000000000000000000000000000000000000000000000000000000000000000000000000000000000000000000000000000029
:4017C00000000000000000000000000000000000000000000000000000000000000000000000000000000000000000000000000000000000000000000000000000000000E9
:4018000000000000000000000000000000000000000000000000000000000000000000000000000000000000000000000000000000000000000000000000000000000000A8
:401840000000000000000000000000000000000000000000000000000000000000000000000000000000000000000000000000000000000000000000000000000000000068
:401880000000000000000000000000000000000000000000000000000000000000000000000000000000000000000000000000000000000000000000000000000000000028
:020000040001F9
:0200000490303A
:02000000E58495
:0200000490402A
:4000000000000000000000000000000000000000000000000000000000000000000000000000000000000000000000000000000000000000000000000000000000000000C0
:400040000000000000000000000000000000000000000000000000000000000000000000000000000000000000000000000000000000000000000000000000000000000080
:0200000490501A
:0C00000000020E34119E00010E3BF7229E
:0200000490600A
:0100000001FE
:00000001FF